:100000000C94B3010C94D0010C94D0010C94A21563
:100010000C94D0010C94D0010C94D0010C94D0011C
:100020000C94D0010C94D0010C94FA1C0C94CC1DAF
:100030000C940A180C94D0010C94D0010C94D001AB
:100040000C94D0010C94D0010C94D0010C94D001EC
:100050000C94D0010C94AF180C94D0010C94D001E6
:100060000C94D0010C94D0010C94D0010C94D001CC
:100070000C94D0010C94D0010C94D0010C94D001BC
:100080000C94D0010C94D0010C94D0010C94D001AC
:100090000C94D0010C94D0010C94D0010C94D0019C
:1000A0000C94D0010C94D0010C94D00100040004F5
:1000B0002C042C0484058405840584059A04100509
:1000C00021052105961308149E1368136C13A213BF
:1000D0006F13A513B0137A13FE137E13B413821398
:1000E000B813E2138613BC13EC138C13C213CC1396
:1000F0007313A9137613AC139113C713D813F81302
:10010000FA1364139A131114DC14E214D014D614E5
:10011000E814EE14F414341E5B1E531F5B1E531FB1
:10012000A71ECA1E531F211F301F34003600370080
:1001300013001C0004001200080018000C0033001B
:1001400014000D000E001B000000000029382D4196
:10015000E0000F00150006000A000900160011005B
:1001600017000B0007001D0019001A001000050001
:100170000000000035002C2228421E021F0220022F
:10018000210222022B2104001D0006001B0000009A
:10019000000000000000000000000000E700215205
:1001A000E600270226025200240223022A004F0002
:1001B000510050004A004C0030002F0028004D0034
:1001C0000000000000002C2223521E001F0020000F
:1001D0002100220023002400250026002700E00043
:1001E000E10000000000000000000000E7002352D2
:1001F000E600380238002B0030002F00E5002E000A
:10020000350031003102E500000035022E022800E1
:10021000000000000000000000001E021F0220027B
:1002200021022202000000000000000000003A004D
:100230003B003C003D003E000000000000000000CC
:10024000000030002F0025022402230230022F027A
:1002500000003100310243004200410040003F00F5
:1002600000000000000000000000160363006F00A3
:1002700072006E0065005F006D0069006E0069002D
:100280000000160367006F0072006F0070006900C5
:100290006B00610072006900000004030904090298
:1002A0003B00020100A0FA09040000010301010063
:1002B0000921110100012240000705810308000106
:1002C00009040100010300000009211101000122BD
:1002D0003B0007058203200001120100020000001C
:1002E00008EDFE000000010102000105010906A160
:1002F000018506050719E029E71500250195087510
:100300000181020507190029EF1500250195F075F7
:1003100001810205081901290595057501910295CC
:100320000175039101C005010906A101050719E046
:1003300029E71500250195087501810295017508C9
:1003400081010507190029FF150026FF0095067594
:100350000881000508190129059505750191029587
:100360000175039101C011241FBECFEFDAE0DEBF9B
:10037000CDBF11E0A0E0B1E0E4E5F0E402C00590FB
:100380000D92A033B107D9F722E0A0E3B1E001C09C
:100390001D92A435B207E1F70E941B130C9428208C
:1003A0000C9400008430B0F46830A0F4453090F430
:1003B00098E2899FF001112485E0689FE00DF11D0E
:1003C0001124E40FF11DEE0FFF1FE65DFE4F859136
:1003D0009491089580E090E008950E94D2010895DC
:1003E00081E0089581E008950E94F2010895089542
:1003F0000E94F7010895A5E0B0E0E1E0F2E00C947E
:10040000A81F49835A833091370189819A8131111C
:1004100014C0662359F0222349F00E945607182F72
:10042000682F89819A810E94320703C00E94440785
:10043000182F69817A81812F04C00E945607698133
:100440007A810E94E60D2596E3E00C94C41FFC011E
:10045000262F408151816281738184810E94FB013A
:10046000089581E00895CF93DF93EC0160E00E944E
:100470002702BE010E94F801DF91CF9108950E94EA
:100480006D0F08950E94670F089508950E94FB055F
:100490000E9445022FEF84E39CE021508040904071
:1004A000E1F700C0000008950E9446020E94D5189E
:1004B00008950E9446020E94E61808950F931F9324
:1004C000CF93DF938C0161E00E942702EC01B80119
:1004D0000E94F401882309F442C0B801CE010E94B1
:1004E000C4148823E1F1B801CE010E94401388238F
:1004F000B1F1B801CE010E942A14882381F1F801DC
:100500008281882341F1C3308CE7D807D1F040F4D1
:10051000C115FCE7DF0791F0C130DC47A1F01BC03B
:10052000CB35ECE7DE07A9F0CC35FCE7DF0771F04F
:10053000CA35DC4781F40E94910B0DC00E94540221
:100540000EC00E94990B0E94590209C00E94870B9D
:1005500002C00E94950BC8010E94F00101C080E01A
:10056000DF91CF911F910F9108950E94E3170E9490
:10057000DF0208950E94E3020E94EC170895089597
:100580000E94BF02089581E008950895CF93DF93FC
:10059000D82F0E94C302C82F882319F08D2F0E94E4
:1005A000C5028C2FDF91CF9108950895CF93C82F66
:1005B0000E94C0028C2F0E94C602CF91089580E055
:1005C0000E94D60208950E94CD160E94D602089578
:1005D000CF930E94CD16C82F80913201C81779F0B1
:1005E000C09332010E9478186093330170933401F4
:1005F00080933501909336018C2F0E94D602CF91C3
:100600000895ABE0B0E0E7E0F3E00C94A91F4F835E
:10061000588769877A878B8761110E94CF0A9E016C
:100620002F5F3F4F86E0F90111928A95E9F785E047
:10063000FE013796D90101900D928A95E1F78981E3
:100640009A814C815D81452B31F09F3F31F491E0DF
:100650008F3F19F403C091E001C090E090FF09C002
:1006600049815A816B817C818D819E810E94FB0929
:1006700005C0C9010E9431028111F2CF2B96E2E040
:100680000C94C51FFC01808191810E948807089508
:10069000CF93882369F1C82F8CEF8C0F813AD0F467
:1006A0006C2F80910001909101010E941117882305
:1006B00049F06C2F80910001909101010E949F17D9
:1006C0000E94F30A6C2F80910001909101010E9419
:1006D00091170CC080E28C0F883050F4C77081E015
:1006E00001C0880FCA95EAF70E94B20A0E94F30A75
:1006F000CF9108958823D1F0682F8CEF860F813A2F
:1007000038F480910001909101010E949F170CC064
:1007100080E2860F883050F4677081E001C0880F56
:100720006A95EAF70E94B80A0E94F30A08951F9397
:10073000CF93DF93182FEB010E944803209741F0DD
:100740008FE99FE00197F1F700C000002197F6CFF5
:10075000812F0E947A03DF91CF911F9108958933F1
:1007600019F060E070E002C060E570E00E9497035D
:100770000895882321F00E94B20A0E94F30A089586
:10078000882321F00E94B80A0E94F30A0895A0E08D
:10079000B0E0EDECF3E00C94A31F7C01D62FC72F43
:1007A000FC011281058102950F700E94A80A88231E
:1007B000B9F01123A9F08C2F807F803421F080E2E2
:1007C0008D0F883068F08091300282FF09C082E08E
:1007D0000E94550B0E94A80A91E0D82ED92601C08C
:1007E000D12CCC2EC2948FE0C8228C2D90E08C307E
:1007F000910508F089C1FC01EA5AFF4F0C94931F40
:100800008C2F807FCF70882311F0C295C07F112379
:1008100099F0CC2309F464C180E28D0F883010F088
:10082000D11104C08C2F0E94B20A03C08C2F0E94E9
:10083000C20A0E94F30A54C18D2F0E947A03CC236E
:1008400009F462C180E28D0F883038F1DD2329F18F
:100850008C2F0E94C80A24C08C2F807FCF708032DA
:1008600011F0C295C07FDD2319F0D130D1F143C022
:100870008091300282FD17C0112349F0CC2329F06A
:100880008C2F0E94B20A0E94F30A80E02AC180E005
:100890000E947A03CC2309F437C18C2F0E94B80A36
:1008A0000E94F30A31C1112371F0002341F001309D
:1008B00031F40E94D20A8C2B0E94DC0A25C10E94CE
:1008C000D20A8C2B23C0011103C00E94E90A2EC05A
:1008D000013009F419C18C2F0E94C0030E94E90A5B
:1008E00013C1112321F0063008F00EC10EC00530EF
:1008F00008F00AC11BC0112361F0002331F0F70199
:10090000858180FFEDC08F7085838C2F0E94B90395
:10091000FBC0002359F0D93309F0F3C0FFEF27EEF5
:1009200083E0F15020408040E1F7E9C08C2F0E9425
:10093000C003EAC08C2F8370B1F51111E9C04D2FAF
:10094000429546954770440F440F8D2F8F7090E06D
:100950009C01042E02C0220F331F0A94E2F7D4FF39
:100960000AC08FE090E002C0880F991F4A95E2F715
:100970008095909502C080E090E0C695C695C370C2
:10098000822B932BC23049F058F4C13019F00E94E9
:100990006506BEC00E945C06BBC00E946E06B8C061
:1009A0000E945906B5C0112319F08C2F817001C027
:1009B0008695882309F4ACC04D2F42954695477023
:1009C000440F440F8D2F8F7090E09C01042E02C0C5
:1009D000220F331F0A94E2F7D4FF0AC08FE090E0A1
:1009E00002C0880F991F4A95E2F78095909502C042
:1009F00080E090E0C695C695C370822B932BC230E1
:100A000049F058F4C13019F00E94CD0681C00E940F
:100A1000C4067EC00E94D6067BC00E947A0678C0BB
:100A2000CF70112339F08C2F0E9492068D2F0E94D7
:100A3000B9036EC08D2F0E94C0038C2F0E94A206A6
:100A400067C0D23F21F128F4D03F41F0D13FC1F03F
:100A500043C0D33F19F1D43F79F03EC0112341F098
:100A6000053008F051C08C2F8F710E94B4064CC025
:100A7000063008F049C0F7CF8091300282FD18C0DF
:100A8000112339F08C2F8F710E9492063DC01123E3
:100A9000C9F38C2F8F710E94A20636C0112329F052
:100AA0008C2F8F710E9486062FC00E9481062CC059
:100AB000112349F0CF718C2F0E94920663E08C2F96
:100AC0000E94370B21C081E00E94550B0230E0F0FC
:100AD00082E00E94550B18C0112331F0002391F2DF
:100AE0008D2F0E94480310C0002399F2D93349F496
:100AF0009FEFE7EEF3E09150E040F040E1F700C0F7
:100B000000008D2F0E947A0388EF8C0D843020F432
:100B10000E94CD160E94D602DD2089F00E94A40A10
:100B200080FD0DC0F70112820E949E0A0E9492066B
:100B3000C7010E94BC050E949E0A0E94A206CDB772
:100B4000DEB7E8E00C94BF1F0F931F93CF93DF93A2
:100B5000EC01688179818A810E9493078C010E944F
:100B6000DF060E944A06B801CE010E94C703DF914A
:100B7000CF911F910F910895CF93DF93EC0198814E
:100B800089812B813C81232B31F08F3F31F481E02F
:100B90009F3F19F403C081E001C080E080FD1AC0CE
:100BA000CE010E945E0281110FC00E94A80A882314
:100BB00089F08A81882371F08091300282FF0AC017
:100BC00082E00E94550B06C0CE010E94A405CE0112
:100BD0000E943302DF91CF9108950E94CF0A0E94B4
:100BE000F30A089580910001909101010E94AD17D0
:100BF0000E94ED0508950E94BF0A0E94F205089523
:100C000092959F70963079F010F4925001C09A50EE
:100C1000923068F4803F69F018F4883E40F409C0CF
:100C2000843F29F406C0883E20F0813F11F080E027
:100C3000089581E00895FC019081818123813481B0
:100C4000232B31F08F3F31F481E09F3F19F403C033
:100C500081E001C080E080FD07C0808191810E9419
:100C600088070E940006089580E00895A5E0B0E09E
:100C7000ECE3F6E00C94A91F2596E2E00C94C51F66
:100C8000A6E0B0E0E6E4F6E00C94A91F2696E2E0C8
:100C90000C94C51F089508950E944B0608950E9464
:100CA0004C0608950E944F0690934F0180934E0189
:100CB00008950E945206089520914E0130914F01EF
:100CC000822B932B0E945206089520914E01309161
:100CD0004F01822393230E945206089520914E01D2
:100CE00030914F01822793270E94520608950E9457
:100CF0004B0608950E94770690934D0180934C0116
:100D0000089580E090E00E947A06089521E030E0A6
:100D1000A90102C0440F551F8A95E2F7CA010E943B
:100D20007A06089521E030E002C0220F331F8A9531
:100D3000E2F780914C0190914D01822B932B0E9400
:100D40007A06089521E030E002C0220F331F8A9511
:100D5000E2F72095309580914C0190914D018223CE
:100D600093230E947A06089521E030E002C0220F0A
:100D7000331F8A95E2F780914C0190914D018227B3
:100D800093270E947A06089520914C0130914D01DD
:100D9000822B932B0E947A06089520914C0130916A
:100DA0004D01822393230E947A06089520914C01DD
:100DB00030914D01822793270E947A060895089565
:100DC000962F9770A1E001C0AA0F9A95EAF793E0D9
:100DD000769567959A95E1F7660F771F660F771FEF
:100DE000FA01E60FF71F40E050E0682F70E09081B5
:100DF0009B01042E02C0369527950A94E2F72170D4
:100E0000219529272A23292721934F5F5F4F4430BB
:100E1000510569F70895FB01782F777023E09695C7
:100E200087952A95E1F7880F991F880F991FE80F7A
:100E3000F91F40E050E080E0219130E0072E02C031
:100E4000369527950A94E2F721703327042E01C0C6
:100E5000220F0A94EAF7822B4F5F5F4F443051050F
:100E600059F70895282F983070F4853060F4862F54
:100E7000622F70E025E0929F600D711D112448E300
:100E800051E00E94E0060895983070F4853060F4D7
:100E9000292F90E068E371E035E0239F800D911DDC
:100EA00011240E940B07089580E00895A0E0B0E0AF
:100EB000ECE5F7E00C94A21F7C0100914C0110912D
:100EC0004D0180914E0190914F01082B192BCFE0DD
:100ED000D0E0CC24C394D12CC6010C2E02C0880FC4
:100EE000991F0A94E2F780239123892B21F42197FB
:100EF00098F7B12C07C0BC2EB7018C2F0E94F20DC1
:100F00000197A9F38B2DCDB7DEB7E9E00C94BE1F96
:100F1000CF93DF93EC010E945607BE010E94F20DB1
:100F2000DF91CF9108951F93CF93DF93EB019091C1
:100F30003701992321F0CB010E94880713C0882331
:100F400049F0CB010E945607182F682FCE010E944E
:100F5000320704C0CB010E944407182FBE01812F25
:100F60000E94F20DDF91CF911F9108951F93CF93AF
:100F7000DF93C091500116E080915101C81799F09C
:100F8000D0E01C9FF0011D9FF00D1124EE5AFE4F82
:100F90004081518162817381848195810E944006E4
:100FA0002196C770E9CFDF91CF911F9108954091AD
:100FB000820150918301609184017091850180913B
:100FC0008601909187010E94400608950F931F9318
:100FD000CF93DF938091870182958F7009F05AC07B
:100FE00080918401882309F455C0809150011091AB
:100FF00051016091820170918301C0918501D0916E
:10100000860191E06F3F09F090E0292F06E08117FB
:1010100009F440C0209721F07F3F21F030E003C069
:1010200031E001C0322F90E030FD31C0089FF00167
:10103000099FF00D1124DF01AE5ABE4F11963C916D
:101040001197371324C03C91361321C012963C915E
:10105000129731111CC013964D915C9114974C1B43
:101060005D0B483C510598F4809187018F70806139
:1010700080938701E95AFE4F80818F708061808361
:1010800082E891E00E94BC050E94B60703C0019669
:101090008770BDCFDF91CF911F910F910895A1E18E
:1010A000B0E0E5E5F8E00C94A01F8C0185E0F801C4
:1010B000DE011D9601900D928A95E1F7F801E2801C
:1010C0009091820160918301209185013091860188
:1010D0002115310531F06F3F31F481E09F3F19F464
:1010E00003C081E001C080E0F82FF1709F2E80FDE9
:1010F00040C1F80140815181A380B48082E8C82EAC
:1011000081E0D82EF0908401F501E21BF30BFF2063
:1011100009F4DAC080918701E83CF10508F096C037
:10112000282F207F09F053C0561313C0491311C054
:10113000FE2CE1100EC08F708061809387010E94A9
:10114000D707C6010E94BC0580918701F8018583FD
:101150004DC1A114B10431F05F3F31F481E04F3F44
:1011600019F403C081E001C080E080FD03C081E08C
:101170008E2502C080E090E0F82FF170FF2E80FFF6
:101180001CC0809150012091510136E0821709F472
:101190000BC190E0389FF001399FF00D1124EE5AF9
:1011A000FE4F6181561306C06081461303C0628101
:1011B000E61203C001968770E9CFFE2CEE2009F4F9
:1011C00015C18091870181608093870154C05613B7
:1011D00006C0491304C0E11002C0F80199C0C8015B
:1011E0000E941B06882361F1EE2051F120918701B6
:1011F000822F82958F7090E0029774F08091820127
:101200009091830198878F831986BB86AA862C8745
:10121000CE0107960E94BC0586E0F801A2E8B1E085
:1012200001900D928A95E1F70E94E6070E94D70788
:101230000AC0561711F1C8010E941B0681112CC06B
:10124000C8010E94BC05FF24F394D0C0282F207F42
:1012500081F77A2DB98AA88A6E2D89890E9436066F
:1012600082E891E00E94BC0586E0F60111928A9521
:10127000E9F70E94D707F12CB9C04913DCCFE11080
:10128000DACFF8018583C8010E94BC0586E0F6012B
:1012900011928A95E9F7AAC0EE2091F22091870178
:1012A000822F82958F7090E002970CF4B5CF8091D9
:1012B0008201909183019A8389831B82BD82AC82D3
:1012C0002E83CE010196A6CFE83CF10508F044C07C
:1012D000FE2CEE2009F4B4CF561330C049132EC0B3
:1012E0002091870120FD21C0822F82958F70482F89
:1012F00050E041155105C9F0F80125834F305105E3
:1013000041F08F5F982F9295907F822F8F70892B5D
:101310008583C8010E94BC0586E0F801A2E8B1E01F
:1013200001900D928A95E1F73CC086E0F801A2E8B1
:10133000B1E001900D928A95E1F758C0C8010E9472
:101340001B06811169CF809187018160809387019D
:10135000C8010E94BC054AC07A2DB98AA88A6E2DA0
:1013600089890E94360686E0F60111928A95E9F78E
:1013700018C0EE2009F464CFC8010E941B06F82EA5
:10138000882309F45DCF86E0F801A2E8B1E001907E
:101390000D928A95E1F782E891E00E9442030E9453
:1013A000E6070E94D70722C04D875E878D859E8500
:1013B0000E948807292F22952F70223028F49F70D1
:1013C00039F0811105C00BC0243028F49F7049F416
:1013D000805E883020F0C8010E94BC059F2CF92C4B
:1013E00005C0F8019581907F99F7F9CF8F2D61960F
:1013F000EBE00C94BC1FACE0B0E0E1E0FAE00C9450
:10140000A81F4F83588769877A878B879C87CE016F
:1014100007960E944F088823D1F09F8188852A85EE
:101420003B85232B31F08F3F31F481E09F3F19F44E
:1014300003C081E001C080E080FD47C04F81588536
:1014400069857A858B859C850E9440063EC086E032
:10145000FE013796DE01119601900D928A95E1F713
:10146000FF81E8856A857B856115710531F0EF3F65
:1014700031F481E0FF3F19F403C081E001C080E056
:1014800080FD23C02091510130E0C9010196877091
:1014900099274091500150E084179507F1F1F983A5
:1014A000EA837D836C8396E0929FD001939FB00D79
:1014B0001124AE5ABE4FFE01319601900D929A95BD
:1014C000E1F7809351010E94B60716E08091500128
:1014D00090915101891771F1189FC00111248E5A02
:1014E0009E4F0E944F08882329F1E09150011E9FD2
:1014F000F0011124EE5AFE4F4081518162817381C7
:10150000848195810E9440068091500190E001966F
:101510008770992780935001D9CF0E94FB051092C4
:10152000510110925001E2E8F1E086E0DF011D92E6
:101530008A95E9F72C96E3E00C94C41F8091A801EA
:1015400085958595859508958091A8018770089562
:101550009091A801977081E009F480E0089580914E
:10156000CB0108959091CB01892B8093CB010895F5
:1015700080959091CB0189238093CB01089510929F
:10158000CB0108959091CA01892B8093CA010895D7
:1015900080959091CA0189238093CA010895109281
:1015A000CA0108958091A901089508950E94D50A5D
:1015B00008950E94D60A08959091300292FF08C0C3
:1015C0009091A901981721F08093A9010E94D90A4E
:1015D00008958091A901882329F01092A90180E043
:1015E0000E94D90A0895CF93DF93E0910001F09112
:1015F00001018091CB018083E0910001F091010114
:1016000090818091CA01892B80838091A9018823D0
:1016100081F0E0910001F09101019081892B80839C
:1016200080910001909101010E94FB1681110E949E
:10163000E90AC0910001D091010140E250E068E860
:1016400071E0CE010E94D01F892B59F080E2FE018B
:10165000A8E8B1E001900D928A95E1F7CE010E94D1
:10166000E116DF91CF9108950E94D50A08959091D7
:10167000300292FF11C098E0899F90011124262B1F
:101680002093A8010E9492068091A80185958595D6
:1016900085950E94340B08950E9492060895109239
:1016A000A80180E00E94340B08952091A801809544
:1016B00082238093A801982F977099F430E0482FE7
:1016C000082E000C550B2417350759F09091300265
:1016D00092FF07C08595859585950E94A2060E9478
:1016E0004F0B08959091300292FB222720F9281782
:1016F00069F080FB92F99093300280912F029091D3
:1017000030020E94BA0B82E00E94550B089580912E
:10171000300282FB882780F991E089270E94720BB2
:10172000089581E00E94720B089580E00E94720B80
:1017300008956FEF7FEF80E090E00E9412200895FF
:1017400080E090E00E94EE1F21E0873E9E4F09F06E
:1017500020E0822F089582E090E00E94E61F089525
:1017600083E090E00E94E61F089584E090E00E94EC
:10177000EE1F0895BC0184E090E00E9412200895BD
:10178000AB01BC018FE090E00E9406200895AB0100
:10179000BC0183E190E00E940620089560E070E0C3
:1017A000CB010E94C70B089560E070E0CB010E945E
:1017B000C00B0E94CE0B089567EE7EEF80E090E0B4
:1017C0000E94122060E082E090E00E94F41F60E03E
:1017D00083E090E00E94F41F10924F0110924E019E
:1017E00060E074E184E090E00E94122060E086E016
:1017F00090E00E94F41F6FEF87E090E00E94F41FDA
:1018000040E050E0BA0188E090E00E94062060E0ED
:101810008DE090E00E94F41F40E050E0BA0188E1C2
:1018200090E00E94062060E087E190E00E94F41FB3
:1018300040E050E0BA018CE190E00E94062060E0B8
:1018400070E080E290E00E94122040E050E0BA0197
:1018500088E190E00E9406200E94D40B08950E9427
:10186000DC0B0895682F8EE090E00E94F41F08952D
:101870000E9478186093DA017093DB018093DC0199
:101880009093DD016093D6017093D7018093D801C6
:101890009093D90108950E940511089508950E941A
:1018A0004E0C08950E944E0C08950E94520C08950B
:1018B0000E944E0C08950E94580C08950E944E0CF0
:1018C000089586E19FE00E94C3160E945E0C0E946C
:1018D0005B0C08950E944F0C0E944E0C08950E94CC
:1018E000350F0E94D50208950E9463180E94D60EFB
:1018F0000E941D110E9463100E946F0C0E94281309
:101900000E942F110E94550C0895AAE0B0E0EBE868
:10191000FCE00C94A11F0E9488108EECE82E81E060
:10192000F82E670100E0F60111916F01802F0E94EF
:10193000530F81270F5F083019F08823A1F322C0CD
:10194000811120C00E946C188C018091CC01909173
:10195000CD010817190709F450C08FEF89838A83D6
:101960001B820E946C188160782F9D838C83498133
:101970005A816B818D810E9401031093CD010093E8
:10198000CC013BC08091DE0181FD0E94590F0E9475
:101990004B0CA82E10E0812F0E94530FB82EF70198
:1019A000C080C82611F100E0DD24D3948C2D8D2158
:1019B000B1F0AA20A1F00E831F8391E08B2D8D2121
:1019C00009F490E098870E946C188160782F9A87BC
:1019D00089874E815F8168858A850E9401030F5F38
:1019E000DD0C053019F7F701B0821F5FFFEFEF1A2A
:1019F000FF0A183081F60E94380C0E9405110E94DF
:101A0000E8022A96EAE00C94BD1FCF93DF930E9470
:101A1000F70DEC01811522E5920770F5811530E58F
:101A2000930708F0B0C0883E9105B8F4803E910558
:101A300008F0C8C0853A910550F48430910508F04B
:101A4000C1C0019709F0BBC081E090E0BCC08D3CF3
:101A5000910508F4B4C09065B6C0811560E496079E
:101A600008F04FC08115904208F09EC0C11581E07A
:101A7000D80708F0A7C0A3C0C03892E5D90718F569
:101A8000C03622E5D20708F05EC0C03432E5D30785
:101A900008F044C0C03262E5D607B8F52C2F269571
:101AA000269560E2269F90011124C37081E090E0AA
:101AB00002C0880F991FCA95E2F7E901C82BD92BFC
:101AC000CE019D6880C0C03C72E5D70768F48C2FBA
:101AD0008F71C03AD24508F04DC090E0D82FCC2786
:101AE000CE01846F906A6FC0C03E22E5D20708F035
:101AF00066C0CF71DD27DC2FCC27CE01806F906AC6
:101B000062C0DF70CE01906A5EC0CF718C2F90E012
:101B1000D82FCC27CE01816F906A55C08C2F8F7142
:101B20008695869570E2879FA00111249C2F937063
:101B300021E030E0B90102C0660F771F9A95E2F705
:101B4000CB019C6814C08C2F8F718695869570E2AE
:101B5000879FA00111249C2F937021E030E0B901F0
:101B600002C0660F771F9A95E2F7CB019A68842B23
:101B7000952B29C00E94930E8F7190E0D82FCC270F
:101B8000CE01906220C08F710E94930E95E0D69591
:101B9000C7959A95E1F7CF70D0E0DC2FCC27D069BC
:101BA0009E01282BC9010FC08D2F8F710E94930EAB
:101BB000DD27D0628F71BE01782BCB0104C080E09D
:101BC00090E001C0CE01DF91CF910895783038F4D4
:101BD000653028F4462F672F0E94ED01089580E0BC
:101BE00090E008950E94E60D0E94050D0895823848
:101BF000910569F1B0F48133910509F475C048F499
:101C00008932910509F467C08A32910509F471C0DF
:101C100008958533910509F459C089339105B9F0C8
:101C20000895833E910589F138F4803E9105D1F005
:101C3000823E910529F10895863E9105C9F1873EBE
:101C40009105D9F1843E910509F06CC027C020911F
:101C50002F0220FD57C021FD55C02091300223FDE9
:101C60005BC0089580912F0280FD48C080913002B2
:101C700080FF48C080912F0284FD46C083EE51C092
:101C800080912F0282FF3CC0F5CF80912F0282FD10
:101C900037C08091300280FD35C0ECCF809130029A
:101CA00081FF36C080912F0284FD2EC087EE39C09F
:101CB00080912F0283FF2AC0F5CF80912F0283FDF0
:101CC00025C08091300281FD23C0ECCF80912F028E
:101CD00085FD22C01FC080912F0285FD1BC0809111
:101CE000300283FF19C00AC080912F0286FD16C002
:101CF00017C080912F0286FD13C010C089E311C068
:101D000082EE0FC080EE0DC080E00BC086EE09C0F1
:101D100084EE07C085E305C089E203C08AE201C002
:101D200081E390E0089590912F0292FF0DC0282F3B
:101D30002871283019F4877F846006C0282F247109
:101D4000243011F48B7F886093FF0DC0282F2871F9
:101D5000283119F4877E846106C0282F247124312C
:101D600011F48B7E88612091300220FF0DC0382F46
:101D70003871383019F4877F816006C0382F31718F
:101D8000313011F48E7F886021FF0DC0282F28711B
:101D9000283119F4877E816106C0282F21712131F5
:101DA00011F48E7E886194FD877E089510922B0237
:101DB00010922C0210922D0210922E020895CF92B2
:101DC000DF92EF92FF926B017C010E94051181115D
:101DD0000EC00E947818C61AD70AE80AF90AC092FB
:101DE0002B02D0922C02E0922D02F0922E02FF9054
:101DF000EF90DF90CF9008950F931F930E940511ED
:101E0000882319F00E9478180EC00E94781800915B
:101E10002B0210912C0220912D0230912E02600F86
:101E2000711F821F931F1F910F91089580E00895E5
:101E30000E94990B08950E9488102FEF86E791E089
:101E4000215080409040E1F700C000000E948810BF
:101E500080E00E94530F80FF04C00E94180F0E9470
:101E6000D51808950E941B0F08950E94A00B8111A0
:101E700002C00E942F0C0E94AB0B8093DE010E94D7
:101E8000B50B9093300280932F020E94320F0E9474
:101E9000B00B90E00E94590680914C0190914D0149
:101EA0000E9477060895E82FF0E0E65CFD4F808100
:101EB0000895089580EA8A95F1F7089500C008957D
:101EC0000E945A0F089508950E94630F08950E947A
:101ED000640F08950E94630F08950E946A0F089589
:101EE0000E94630F0895A4E0B0E0E9E7FFE00C94DE
:101EF000A71F0E940511609142028823E9F119820F
:101F00001A821B821C82862F90E08E010F5F1F4F6A
:101F1000B801865C9D4F0E943D11882389F0809115
:101F2000310290E044E050E0B801865C9D4F0E9491
:101F3000D01F21E02093DF01892B69F410E019C044
:101F40008091DF018823D1F384E0F80111928A9512
:101F5000E9F71092DF01E0913102F0E0E65CFD4F1D
:101F600089819A81AB81BC8180839183A283B38371
:101F700011E00E9442020DC070E0665C7D4F8091CE
:101F8000310290E0865C9D4F0E94C6110E94700F46
:101F900010E0812F2496E4E00C94C31FF894E82FFE
:101FA000E295EF70F0E031A1282F2F7081E090E0F2
:101FB00001C0880F2A95EAF7982F9095932391A353
:101FC00092A1892B82A3789408950F931F93CF93A6
:101FD000DF93C9E2D1E089918F3F11F00E94CE0FCB
:101FE00081E0CD32D807B9F7C4E2D1E009E211E0CF
:101FF00089918F3F11F00E94CE0F0C171D07C1F77A
:10200000DF91CF911F910F910895A0E0B0E0EBE038
:10201000F0E10C94A31F8C01C62FD0E0CE01875DA8
:102020009E4F7C01FC0190819F3F09F447C0D62E52
:10203000F894E92FE295EF70F0E081A19F7021E024
:1020400030E001C0220F9A95EAF7822B81A382A18A
:102050002095282322A378940E945E0FE4E2F1E009
:1020600049E251E031E0C12C21912F3F89F0A22FAC
:10207000A295AF70B0E090968C9190E02F7002C066
:10208000959587952A95E2F780FD02C0832F01C0C0
:1020900080E0C82A330F4E175F0731F7F7018081C0
:1020A0008F3F11F00E94CE0F61E0C11001C060E0CF
:1020B0008D2D0E94600FC00FD11FC882CDB7DEB733
:1020C000E8E00C94BF1F8091020180910201811110
:1020D00002C094E001C090E09093420284E0891B2A
:1020E000809331020E94E50F88E0EAE3F2E0DF012D
:1020F000982F1D929A95E9F7E2E3F2E0DF011D9235
:102100008A95E9F784E00E94C6100E943F02089574
:10211000A8E0B0E0EEE8F0E10C94A61F8E010F5F9E
:102120001F4F88E0F80111928A95E9F7F12C6F2D85
:10213000C8010E940510F394F4E0FF12F8CF48E0C4
:1021400050E0B80182E392E00E94D01F21E00097A6
:1021500009F420E0892B41F088E0F801A2E3B2E025
:1021600001900D928A95E1F76091420270E0665C01
:102170007D4F44E082E392E00E94C710182F0E9436
:10218000730F812B2896E5E00C94C21F0895EF92FF
:10219000FF920F931F93CF93DF937C018B01C42F8A
:1021A000222349F081E08093E2010E946C18909311
:1021B000E1018093E0018091E201811102C080E0A1
:1021C0001AC08091E0019091E1010E948418059766
:1021D000B0F3D0E0AE01B701C8010E94D01F892B37
:1021E00039F0AE01B701C8010E94DD1F81E001C0D6
:1021F00080E01092E201CDB7DEB7E6E00C94C11F9B
:1022000083B185FB882780F908958091E5018111CC
:102210000DC00E94861F811102C082E001C081E0D2
:102220008093E501823011F40E94811F81E090913A
:10223000E501913009F080E0089525982D988FE808
:1022400091E00197F1F700C000000E940011809317
:1022500002010E94051181110E94751108950E94CA
:102260000511811102C00E947811089581E09091BA
:10227000E6019A3008F080E008950F931F93CF9302
:10228000DF93EC018B018091E6018A3038F4B801CC
:10229000CE010E94C31181111DC00AC08091E301CB
:1022A0009091E4010E948418843F914080F715C00A
:1022B0008091E6018F3F19F08F5F8093E601809156
:1022C000E6018A3060F00E946C189093E4018093DC
:1022D000E30103C01092E60102C080E001C081E08A
:1022E000DF91CF911F910F9108950E945D15089580
:1022F0000E9460150895A0E0B0E0E1E8F1E10C94DF
:10230000A41F7901C82F880FDD0B41155105A9F0D5
:10231000FE0193E0EE0FFF1F9A95E1F7ED5FFE4F90
:102320008181928189519E4F208130E0421753076D
:1023300008F49A01A9010E94DD1FCE010E944816EF
:10234000D82E8823D1F001151105B9F083E0CC0F08
:10235000DD1F8A95E1F7FE01ED5FFE4F438150E0FE
:102360000417150708F4A801CD5FDE4F6C817D814D
:1023700069517E4FC7010E94DD1F8D2DCDB7DEB79D
:10238000E7E00C94C01F0E94C01208950E94D7126B
:102390000895A4E0B0E0EFECF1E10C94A71F609188
:1023A000FC017091FD018091FE019091FF010E945E
:1023B0009318643671058105910528F10E94FC0E81
:1023C000DC01CB010296A11DB11D89839A83AB83E9
:1023D000BC8300E010E020E030E044E050E0BE01CB
:1023E0006F5F7F4F82E00E947B11182F882361F07E
:1023F0000E9478186093FC017093FD018093FE01A8
:102400009093FF0101C011E0812F2496E4E00C9429
:10241000C31FA0E0B0E0EFE0F2E10C94A11F7C014B
:102420005B016A010E943611811103C001E010E0D6
:1024300002C00AE010E0C1E0D0E0B501C701F6013A
:102440000995811115C021960C171D0794F0CC9F9A
:102450009001CD9F300D300D112480E090E045E3D8
:102460004A95F1F70000019682179307C1F7E5CF6F
:1024700081E0CDB7DEB7EAE00C94BD1FA5E0B0E087
:10248000E4E4F2E10C94A11F5B01E0902D01F090D7
:102490002E0101E010E09E012B5F3F4F40E050E035
:1024A00060E070E080E00E947B11182F882309F41F
:1024B0003EC067018FEFC81AD80A6091F801709189
:1024C000F9018091FA019091FB010E949318643602
:1024D00071058105910518F104E010E09E012F5F60
:1024E0003F4F40E050E060E070E081E00E947B11EF
:1024F000182F64E070E0C6010E94291391E02D813D
:10250000281390E0192351F10E9478186093F80184
:102510007093F9018093FA019093FB0111C064E07C
:1025200070E0C6010E9429139D818913D5CFF70160
:1025300081819281A381B48189839A83AB83BC8397
:10254000112361F089819A81AB81BC818093F40170
:102550009093F501A093F601B093F7018091F401F7
:102560009091F501A091F601B091F701F5018083FA
:102570009183A283B383812F2596EAE00C94BD1F3B
:102580000F931F93CF93DF93EC018B014EE352E146
:102590000E940912882331F049EC51E1B801CE01C3
:1025A0000E940912DF91CF911F910F9108950F930F
:1025B0001F93CF93DF93C0912D01D0912E01CE01B7
:1025C000019624E0FB01DC0101900D922A95E1F7D0
:1025D00064E070E00E94291388836D817E818F8181
:1025E00098850091F0011091F1012091F201309154
:1025F000F301601771078207930751F06093F001B0
:102600007093F1018093F2019093F3010E94DF0E29
:10261000DF91CF911F910F9108950E94541A0E944B
:10262000740C0E94611A08950E94661A0E94850C1B
:102630000E94801A08950E9403180E943A1A0E946C
:10264000610C0E940D130E9414130E946A0CFBCFB0
:102650000895FC01680F791F8FEF91E3E617F707E4
:1026600071F02191822728E030E087FF03C0880FB6
:10267000892701C0880F21503109B9F7EFCF08959C
:10268000CF93DF93FC01DB0112968C91882309F430
:10269000DDC09F0130572332310508F0D8C0EF016B
:1026A0000E94B50B9093300280932F02FE01E150FF
:1026B000F047E232F10520F4EE59FF4F0C94931FDE
:1026C00080912F028160AAC0809130028860B2C0E0
:1026D00080912F028260A2C080912F0220C0809141
:1026E0002F0288609BC0809130021EC08091300212
:1026F0008260A0C080912F02806190C080912F02E3
:1027000080628CC080912F02806488C00E94FB058B
:1027100080912F02806882C080912F02886084603F
:102720007DC0809130028260816084C080912F02E0
:102730008E7F74C080913002877F7CC080912F0291
:102740008D7F6CC080912F0220C080912F02877FE7
:1027500065C0809130021EC0809130028D7F6AC0BA
:1027600080912F028F7E5AC080912F028F7D56C09C
:1027700080912F028F7B52C00E94FB0580912F0217
:102780008F774CC080912F02877F8B7F47C08091CD
:1027900030028D7F8E7F4EC080912F0282FB2227D8
:1027A00020F991E0922790FB82F990FB83F936C0E3
:1027B00080913002982F909591708E7F892B90FB9D
:1027C00081F938C080912F0286FB222720F991E001
:1027D000922790FB86F922C00E94FB0580912F0270
:1027E00087FB222720F991E0922790FB87F916C0FA
:1027F00081E001C080E00E94320C1EC080912F0257
:1028000084FB222720F991E0922790FB84F906C0EF
:1028100080912F02982F909590FB80F980932F0242
:102820000BC08091300283FB222720F991E0922790
:1028300090FB83F98093300280912F0290913002B7
:102840000E94BA0B0E94FB0580E001C081E0DF918D
:10285000CF910895CF93DF9386319C4741F5EB01EB
:102860000E94AF0A982F8A812091000130910101C6
:10287000882379F09A7A81E009F480E0809300025D
:10288000911102C069E201C065E3C9010E9491177C
:102890000AC080910002811102C069E201C065E3B3
:1028A000C9010E949F170E94F30A80E001C081E0E5
:1028B000DF91CF9108950F931F93CF93DF93C42F90
:1028C000D22FFC0182818823B1F0409303020E9441
:1028D0006C18909302028093010280E28C0F883082
:1028E00008F04DC0C77081E001C0880FCA95EAF7B3
:1028F0000E94B90344C080910302481330C0809104
:102900000102909102020E948418883C910538F5DA
:1029100010E21D0FCD17B9F080E28C0F883040F423
:10292000C77081E001C0880FCA95EAF70E94C00312
:10293000183010F581E09D2F977001C0880F9A958F
:10294000EAF70E94B903802F0E94AF031830B8F451
:10295000D77081E001C0880FDA95EAF70AC080E2FB
:102960008C0F883060F4C77081E001C0880FCA9571
:10297000EAF70E94C00303C0802F0E94AF03DF91DB
:10298000CF911F910F9108950F93FC01E851FC47DF
:10299000E730F10590F5CB01EC57FF4F0C94931FF6
:1029A00006E221EE41EE6AE17CE723C007E225EE74
:1029B00045EE6BE17CE71DC006E221EE40EE68E1EA
:1029C0007CE717C007E225EE44EE69E17CE711C021
:1029D00006E221EE42EE6CE17CE70BC007E225EE59
:1029E00046EE6DE17CE705C008E221E045EE6EE1D0
:1029F0007CE70E945B1480E008C0FB018281882391
:102A000019F01092030201C081E00F9108958EE148
:102A10004A9B02C08150E1F74A9BFECF08955A9825
:102A200080E28A95F1F75A9A0895FC012AE02A95E6
:102A3000F1F728E090E080E031E040E14A95F1F7DD
:102A4000880F4A9B02C08160932700C0000040E1CC
:102A50004A95F1F7215089F720E12A95F1F729B13C
:102A600000C0000030E13A95F1F722FB222720F95F
:102A700092272081920F90830895A1E0B0E0E3E4D3
:102A8000F5E10C94A51F19828C017C01E60EF11C66
:102A90000E151F0551F00E940715CE0101960E94E8
:102AA0001515F80181938F01F3CF81E09981911180
:102AB00080E02196E6E00C94C11F529A5A9A08953C
:102AC00052985A9AEA9AE9E6F0E080818F7C8083F6
:102AD0000895615091E001C0990F6A95EAF720E0EE
:102AE00031E0992361F0492F482319F05A9A23279E
:102AF00001C05A9840E24A95F1F79695F2CF222309
:102B000011F05A9A01C05A9880E28A95F1F75A98C2
:102B10000895FF920F931F93CF93DF93EC018C01E5
:102B2000060F111DC017D10741F0F9900E940F1533
:102B300068E08F2D0E946915F5CFCDB7DEB7E5E0CF
:102B40000C94C21F1F920F920FB60F9211240F9375
:102B50001F932F933F934F935F936F937F938F9325
:102B60009F93AF93BF93EF93FF93CF93DF931F9206
:102B7000CDB7DEB719820E940715CE0101960E94DB
:102B80001515082F069506950695902F9695957024
:102B9000202F2570920F292F237096959695920FCE
:102BA000877089135FC0898181115CC0043008F08F
:102BB00059C080E18A95F1F75A9A529A82E08A9533
:102BC000F1F700C05A9888E0089F80011124D801CD
:102BD000AD5FBE4F1696ED91FC9117973097A9F017
:102BE00060912D0170912E0114962D913C911597B5
:102BF000260F371F11968D919C911297680F791FA0
:102C000013964C9113978C910995F801ED5FFE4F47
:102C10006381662351F080912D0190912E012481D2
:102C20003581820F931F0E9489150E940F1580E144
:102C30008A95F1F75A9852985A9A80E18A95F1F755
:102C4000F801ED5FFE4F6081662351F080912D0108
:102C500090912E0121813281820F931F0E943D1598
:102C60000E9407150F90DF91CF91FF91EF91BF91D7
:102C7000AF919F918F917F916F915F914F913F9114
:102C80002F911F910F910F900FBE0F901F901895CD
:102C90000F931F93CF93DF93843091050CF06DC099
:102CA000EC01F894529A5A9885E08A95F1F7000061
:102CB0009C2F969595702C2F2570920F892F8370DD
:102CC0009695969523E0CC0FDD1F2A95E1F7980F96
:102CD0008E01092B0E940F1584E08A95F1F700C040
:102CE00068E0802F0E94691580E18A95F1F752987B
:102CF0005A9A4A9902C000C0FCCF87E090E04A9BF4
:102D000008C0019721F4529A5A9A789436C000C0AC
:102D1000F6CFFE01ED5FFE4F6381662381F0809167
:102D20002D0190912E0124813581820F931F0E94E5
:102D30003D15811104C0529A5A9A78941FC00E947E
:102D4000071580E28A95F1F75A98529A80E18A95A0
:102D5000F1F7CD5FDE4F6881662351F080912D0140
:102D600090912E0129813A81820F931F0E9489152B
:102D70000E940F15789481E001C080E0DF91CF912F
:102D80001F910F9108959093310180933001089520
:102D9000909306028093050208950E940511811107
:102DA00003C0809104020895E0910502F0910602AB
:102DB000309729F00190F081E02D0995089580E089
:102DC0000895FC01A0910502B0910602109791F0C0
:102DD00080912301882341F080912F0287FF04C056
:102DE0008081818386E08083CF011296ED91FC91F2
:102DF000139709950895FC01329680912301882349
:102E000031F080912F0287FF02C09EE101C096E061
:102E100080E0915028F021912223D9F38F5FF9CFE0
:102E20000895662351F1209123012223E9F0209196
:102E30002F0227FF19C0462F4695469546954E31DD
:102E4000E0F4677021E030E002C0220F331F6A9582
:102E5000E2F7FC01E40FF11D828190E02823392381
:102E600081E0232B69F409C0FC0132960896219178
:102E7000621729F0E817F907D1F780E0089581E09B
:102E800008959C01FC0132969FEF80E04191461726
:102E900089F09F3F19F4411101C0982F8F5F863050
:102EA000A9F79F3F39F0F901E90FF11D97FDFA9558
:102EB0006283089508959C012A5F3F4FFC0142817F
:102EC000461301C01282019682179307B9F708953D
:102ED000262F2695269526952E3168F4FC01E20FC3
:102EE000F11D677021E030E001C0220F6A95EAF71A
:102EF0008281282B22830895262F269526952695B4
:102F00002E3170F4FC01E20FF11D677021E030E01A
:102F100001C0220F6A95EAF7209582812823228337
:102F2000089520912301222339F020912F0227FFB9
:102F300003C00E94681708950E94411708952091C8
:102F40002301222339F020912F0227FF03C00E9482
:102F50007C1708950E945B17089520912301FC01BE
:102F60003296222331F080912F0287FF02C08EE13A
:102F700001C086E0DF011D928A95E9F70895089562
:102F80000E94BF17089583E0809307020E94C01734
:102F90000895811102C081E001C082E080930702A0
:102FA0000E94C01708950E94C917089581E0809378
:102FB00007020E94C01708950E94D6170895089529
:102FC0000E94DF1708950E94E01708950E94DF17FE
:102FD00008950E94DF1708950E94DF170895CF9388
:102FE0000E94E9170E9488100E94E617C0E08C2F0B
:102FF0000E94530F811104C0CF5FC830C1F701C0D8
:1030000081E0CF91089585B7806885BF85B78068D6
:1030100085BF08951F920F920FB60F9211248F93C0
:103020009F93AF93BF9380910802811113C0809149
:10303000430290914402A0914502B091460241960C
:10304000A11DB11D8093430290934402A0934502B9
:10305000B0934602BF91AF919F918F910F900FBE99
:103060000F901F90189580914B02843031F10E948F
:10307000B5021092080220E488E190E00FB6F894BF
:10308000A895809360000FBE2093600083B7817F76
:10309000846083BF83B7816083BF7894889583B74A
:1030A0008E7F83BF0FB6F894A895809160008861E9
:1030B00080936000109260000FBE08950E94FB058F
:1030C0000E94BA02089582E084BD93E095BD9AEF14
:1030D00097BD80936E0008952FB7F89480914302B6
:1030E00090914402A0914502B09146022FBF0895ED
:1030F0002FB7F89460914302709144028091450289
:10310000909146022FBF08959C014FB7F89480918B
:10311000430290914402A0914502B09146024FBFF4
:10312000821B930B0895CF92DF92EF92FF922FB7FD
:10313000F894C0904302D0904402E0904502F09091
:1031400046022FBFA7019601261B370B480B590BD0
:10315000CA01B901FF90EF90DF90CF900895789465
:103160001F920F920FB60F9211248F939F93AF93DC
:10317000BF938091430290914402A0914502B09187
:1031800046020196A11DB11D809343029093440213
:10319000A0934502B0934602BF91AF919F918F914A
:1031A0000F900FBE0F901F90189587E797E79093A9
:1031B0000108809300089AE088E10FB6F894A8957A
:1031C000809360000FBE90936000FFCF9AE088E18B
:1031D0000FB6F894A895809360000FBE909360009E
:1031E000FFCF809129020895089508959B01909141
:1031F0004B029430F1F48F708093E9008FEF90913F
:10320000E800815095FD06C095ED9A95F1F7000014
:103210008111F5CF8091E80085FF0BC0BA01C9018B
:1032200040E050E00E94F31A8091E8008E7780938E
:10323000E8000895CF93DF93EC0180912301811181
:1032400005C048E050E0BE0181E00BC080912F0234
:1032500087FF03C040E282E002C048E081E050E026
:10326000BE010E94F61880E2FE01A9E0B2E00190E2
:103270000D928A95E1F7DF91CF91089580914A02EE
:10328000811109C00E947E1C0E94DB1C8091E2001B
:1032900084608093E200089510924A0208950E948B
:1032A000DC1708956091470281E0611101C080E060
:1032B0000E94C317089590914B0281E0943009F069
:1032C00080E0609147020E94C917089542E061ECD6
:1032D00081E00E94F71B42E261EC82E00E94F71B52
:1032E00090914B0281E0943009F080E060914702B8
:1032F0000E94D317089580914D02833009F461C074
:1033000030F4813071F0823009F49BC008958A3026
:1033100009F487C08B3009F46CC0893009F0A9C06A
:1033200020C080914C02813A09F0A3C08091E8004E
:10333000877F8093E8008091500290915102892B01
:1033400021F460E289E092E003C060E080E090E078
:1033500070E00E94381B8091E8008B778093E80032
:10336000089580914C02813209F083C0809150020F
:1033700090915102029708F07CC08091E800877F0D
:103380008093E8008091E80082FD05C080914B02A7
:103390008111F8CF6EC02091F3008091F20090E08F
:1033A000922B029731F48091F100813011F0863038
:1033B00021F48091F100809329028091E8008B77BD
:1033C00054C080914C02813A09F053C08091500260
:1033D00090915102892B09F04CC08091E800877FC1
:1033E0008093E8008091E80080FFFCCF809123016A
:1033F00037C080914C028132E1F58091500290916A
:103400005102892BB1F58091E800877F8093E80015
:103410000E942C1C80914E02809323010E94FB0588
:10342000089580914C02813221F58091E800877FD8
:103430008093E8000E942C1C80914F0280932A0206
:10344000089580914C02813AA1F48091E800877F31
:103450008093E8008091E80080FFFCCF80912A02F1
:103460008093F1008091E8008E778093E8000E94BD
:103470002C1C089584B7877F84BF0FB6F894A89555
:1034800080916000886180936000109260000FBEA0
:1034900090E080E80FB6F89480936100909361000B
:1034A0000FBE0E94D61708950E947E1C0E94DB1C4E
:1034B000E2EEF0E080818460808378940E94661F51
:1034C00008958BE191E00E94C816089580914B0207
:1034D0008530A9F480914B02853079F40E9433182D
:1034E000809149028823B1F30E94EF17882391F35A
:1034F0000E94DD1A0E94FB05EDCF0E945E18089520
:1035000008950E94841A0895292F33272330310506
:10351000C9F060F42130310581F02230310509F025
:1035200044C08BE390E02EE932E043C02132310504
:10353000E1F02232310549F138C082E190E029ED15
:1035400032E037C099278130910549F028F0029781
:1035500061F5EAE6F2E005C0EAE9F2E002C0E2E87D
:10356000F2E0849190E09F0124C06115710541F063
:1035700061307105D1F489E090E029EC32E019C0A6
:1035800089E090E020EB32E014C06115710541F054
:103590006130710551F48BE390E02BEE32E009C00D
:1035A00080E490E026E233E004C080E090E020E098
:1035B00030E0FA0131832083089580E189BD82E102
:1035C00089BD09B400FEFDCF8091D8008F7D809326
:1035D000D8008091E00082608093E0008091E0005C
:1035E00081FDFCCF0895A0E0B0E0E9EFFAE10C9492
:1035F000A31FEC018B017A010E944B1C811133C087
:10360000E114F10439F0F70180819181081B190B55
:10361000C80FD91FC12CD12C0115110519F18091AA
:10362000E80085FD16C08091E8008E778093E80061
:10363000E114F10449F0F70180819181C80ED91E8F
:10364000D182C08285E00FC00E944B1C882321F3E9
:103650000AC089918093F10001501109FFEFCF1A40
:10366000DF0ADACF80E0CDB7DEB7E8E00C94BF1F09
:1036700020915202309153022617370748F0611506
:10368000710539F42091E8002E772093E80001C0FD
:10369000B901FC0120E06115710579F180914B02BF
:1036A0008823F1F18530F1F18091E80083FD3CC081
:1036B0008091E80082FD2EC08091E80080FFEBCF72
:1036C0002091F3008091F20090E0922B611571053A
:1036D00051F08830910538F421912093F100615028
:1036E00071090196F3CF21E0089709F020E080915D
:1036F000E8008E778093E800CECF2111CFCF0AC0AB
:1037000080914B02882361F0853061F08091E80060
:1037100083FD0AC08091E80082FFF2CF80E0089527
:1037200082E0089583E0089581E008952091520297
:10373000309153022617370748F06115710539F4A7
:103740002091E8002E772093E80001C0B901FC0128
:1037500020E06115710591F180914B02882309F4F5
:1037600040C0853009F43FC08091E80083FD3DC032
:103770008091E80082FD2FC08091E80080FFE9CFB2
:103780002091F3008091F20090E0922B6115710579
:1037900059F08830910540F424912093F10031963E
:1037A000615071090196F2CF21E0089709F020E0FD
:1037B0008091E8008E778093E800CBCF2111CCCFA9
:1037C0000AC080914B02882361F0853061F08091BE
:1037D000E80083FD0AC08091E80082FFF2CF80E01C
:1037E000089582E0089583E0089581E00895982F78
:1037F000973068F59093E900981739F07091EC00D4
:103800002091ED005091F00003C0242F762F50E05E
:1038100021FD02C09F5FECCF3091EB003E7F3093E3
:10382000EB003091ED003D7F3093ED003091EB00E7
:1038300031603093EB007093EC002093ED005093D7
:10384000F0002091EE0027FDE5CF80E008958F7015
:103850008093E90081E0089580914C0287FF11C0B8
:103860008091E80082FD05C080914B028111F8CF64
:1038700011C08091E8008B770BC080914B028823A8
:1038800049F08091E80080FFF8CF8091E8008E77C2
:103890008093E80008952091E4003091E50095E6DA
:1038A0004091EC00842F817040FF23C08091E8009C
:1038B00080FD1DC080914B02882399F0853099F0DE
:1038C0008091EB0085FD11C04091E4005091E5002E
:1038D0002417350729F3915011F09A01E1CF84E0C4
:1038E000089582E0089583E0089581E0089580E0DE
:1038F00008954091E80042FFDDCF08950E94ED1C3D
:103900000E94F51CE0EEF0E0808181608083E8EDAC
:10391000F0E080818F77808319BCA7EDB0E08C91B7
:103920008E7F8C9380818F7E808310924A020895CF
:103930000F931F93CF93DF930E94ED1C0E94F51C01
:10394000C8EDD0E088818F778883888180688883FC
:1039500088818F7D888319BC10924B021092470298
:10396000109249021092480200EE10E0F8018081A6
:103970008B7F808388818160888342E060E080E083
:103980000E94F71BE1EEF0E080818E7F8083E2EE03
:10399000F0E0808181608083808188608083F8018D
:1039A00080818E7F8083888180618883DF91CF9141
:1039B0001F910F910895E8EDF0E080818F7E808364
:1039C000E7EDF0E080818160808384E082BF81E068
:1039D00080934A020E94981C0895E8EDF0E08081EF
:1039E0008E7F80831092E20008951092DA00109288
:1039F000E10008951F920F920FB60F9211242F939A
:103A00003F934F935F936F937F938F939F93AF9366
:103A1000BF93EF93FF938091E10082FF0BC08091F1
:103A2000E20082FF07C08091E1008B7F8093E1007C
:103A30000E94651F8091DA0080FF1FC08091D8002E
:103A400080FF1BC08091DA008E7F8093DA00809126
:103A5000D90080FF0DC080E189BD82E189BD09B434
:103A600000FEFDCF81E080934B020E943E1905C00D
:103A700019BC10924B020E944C198091E10080FF0A
:103A800019C08091E20080FF15C08091E2008E7F16
:103A90008093E2008091E20080618093E200809157
:103AA000D80080628093D80019BC85E080934B02D7
:103AB0000E9452198091E10084FF30C08091E200A1
:103AC00084FF2CC080E189BD82E189BD09B400FE7C
:103AD000FDCF8091D8008F7D8093D8008091E10048
:103AE0008F7E8093E1008091E2008F7E8093E200E0
:103AF0008091E20081608093E200809147028823F8
:103B000011F084E007C08091E30087FD02C081E0EE
:103B100001C083E080934B020E945B198091E10019
:103B200083FF29C08091E20083FF25C08091E100DE
:103B3000877F8093E10082E080934B0210924702DE
:103B40008091E1008E7F8093E1008091E2008E7F82
:103B50008093E2008091E20080618093E20042E085
:103B600060E080E00E94F71B8091F0008860809305
:103B7000F0000E944F19FF91EF91BF91AF919F917B
:103B80008F917F916F915F914F913F912F910F9006
:103B90000FBE0F901F9018951F920F920FB60F92A5
:103BA00011242F933F934F935F936F937F938F9342
:103BB0009F93AF93BF93CF93DF93EF93FF93C09106
:103BC000E900CF708091EC00D82FD17080FDD0E853
:103BD0001092E9008091F000877F8093F000789444
:103BE0000E94101E1092E9008091F000886080937E
:103BF000F000CD2BCF70C093E900FF91EF91DF91E2
:103C0000CF91BF91AF919F918F917F916F915F9174
:103C10004F913F912F910F900FBE0F901F901895CD
:103C2000AAE2B0E0E6E1FEE10C94A81FECE4F2E0C9
:103C30008091F100819322E0E435F207C9F70E94F8
:103C40007B198091E80083FF2EC180914C029091F6
:103C50004D02492F50E04A30510508F024C1FA01C5
:103C6000E557FF4F0C94931F803821F0823809F0FC
:103C70001AC108C08091480290914902992389F0A5
:103C800082600FC0809150028F70873008F00BC1A6
:103C90008093E9008091EB0085FB882780F91092E2
:103CA000E9009091E800977F9093E8008093F100FD
:103CB0001092F100D1C0282F2D7F09F0F4C0882385
:103CC00019F0823061F0EFC080914E02813009F02E
:103CD000EAC0933009F080E0809349022EC08091C1
:103CE0004E0281112AC0809150028F702FEF280F51
:103CF000263008F0D8C08093E9002091EB0020FF27
:103D00001CC0933021F48091EB00806214C090912C
:103D1000EB0090619093EB0021E030E0A90102C03C
:103D2000440F551F8A95E2F74093EA001092EA008B
:103D30008091EB0088608093EB001092E900809105
:103D4000E800877F8093E8000E942C1CACC08111A2
:103D5000AAC010914E021F778091E3008078812BDA
:103D60008093E3008091E800877F8093E8000E94C1
:103D70002C1C8091E80080FFFCCF8091E3008068DC
:103D80008093E300111102C082E001C083E08093C0
:103D90004B0289C08058823008F085C080914E0265
:103DA00090914F028C3D53E0950779F583E08A832B
:103DB0008AE289834FB7F894DE01139620E03EE053
:103DC00051E2E32FF0E050935700E49120FF03C04D
:103DD000E295EF703F5FEF708E2F90E0EA3010F0C9
:103DE000C79601C0C0968D939D932F5F243149F7EC
:103DF0004FBF8091E800877F8093E8006AE270E01F
:103E0000CE0101960E94381B16C06091500270913D
:103E10005102AE014F5F5F4F0E94811ABC01892B96
:103E200009F441C09091E800977F9093E800898160
:103E30009A810E94961B8091E8008B778093E8001E
:103E400032C0803881F58091E800877F8093E80058
:103E5000809147028093F1008091E8008E7772CFC5
:103E6000811121C080914E0290914F0299270297B3
:103E7000D4F48091E800877F8093E80080914E021F
:103E8000809347020E942C1C80914702811106C03A
:103E90008091E30087FD02C081E001C084E080934F
:103EA0004B020E9466198091E80083FF0AC080914E
:103EB000E800877F8093E8008091EB008062809328
:103EC000EB00AA96E3E00C94C41F0895CF93809171
:103ED0004B028823A1F0C091E900CF709091EC00D3
:103EE000892F817090FD80E8C82B1092E9008091A5
:103EF000E80083FD0E94101ECF70C093E900CF91AF
:103F000008950E947E1C10924B020895E8EDF0E0A7
:103F10008081806180838AE18A95F1F700C0809179
:103F2000D90081700895EE0FFF1F0590F491E02DE8
:103F300009942F923F924F925F926F927F928F924D
:103F40009F92AF92BF92CF92DF92EF92FF920F9328
:103F50001F93CF93DF93CDB7DEB7CA1BDB0B0FB632
:103F6000F894DEBF0FBECDBF09942A8839884888EF
:103F70005F846E847D848C849B84AA84B984C88485
:103F8000DF80EE80FD800C811B81AA81B981CE0F7C
:103F9000D11D0FB6F894DEBF0FBECDBFED01089561
:103FA000FB01DC0104C08D910190801921F4415086
:103FB0005040C8F7881B990B0895FB01DC0102C033
:103FC00001900D9241505040D8F70895F999FECFD5
:103FD00092BD81BDF89A992780B50895A8E1B0E017
:103FE00042E050E00C941A20262FF999FECF92BDA2
:103FF00081BDF89A019700B4021639F01FBA20BDAE
:104000000FB6F894FA9AF99A0FBE08950396272FDF
:104010000E94F51F0E94F41F252F0E94F51F242FD8
:104020000C94F51F0196272F0E94F51F0C94F41F86
:10403000DC01CB01FC01F999FECF06C0F2BDE1BD68
:10404000F89A319600B40D9241505040B8F7089557
:04405000F894FFCF12
:10405400AA010100000001000000000000000401AA
:104064000000000405000000000000F1181A19F413
:1040740018F51801F5F6F73133946697C6E7010091
:00000001FF
